:020000040000FA
:04000000D1EF0FF03D
:1006000000556D69646164653A20004C696D6961EB
:05061000723A20000019
:100616002F50800B386E2F502F243E6E2EAE16EFC5
:1006260003F018EF03F019EF03F03E803E50D8B404
:100636001FEF03F021EF03F034EF03F03E28D8A4B8
:1006460027EF03F029EF03F031EF03F0000E2C6ED5
:10065600000E2D6E000E2E6E000E2F6E2E8E3CEFAF
:1006660003F0000E2C6E000E2D6E000E2E6E000E88
:100676002F6E3350800B381A335033243D6E32AE12
:1006860047EF03F049EF03F04AEF03F03D803D509A
:10069600D8B450EF03F052EF03F065EF03F03D28B6
:1006A600D8A458EF03F05AEF03F062EF03F0000E00
:1006B600306E000E316E000E326E000E336E328ECC
:1006C6006DEF03F0000E306E000E316E000E326ECE
:1006D600000E336E3D50D8B473EF03F075EF03F0A0
:1006E6007DEF03F03E50D8A47BEF03F07DEF03F0DF
:1006F60087EF03F0000E2C6E000E2D6E000E2E6E90
:10070600000E2F6E1FEF05F032502C02F3CF43F090
:10071600F4CF44F04350396E3A6A3B6A3C6A44501F
:100726003F6E406A416A426A31502D02F3CF43F070
:10073600F4CF44F043503926000E3A223B223C22A5
:1007460044503F26000E40224122422230502E02C3
:10075600F3CF43F0F4CF44F043503926000E3A224B
:100766003B223C2244503F26000E40224122422298
:100776003BC03CF03AC03BF039C03AF0396A3050E1
:100786002D02F3CF43F0F4CF44F0435039264450C2
:100796003A22000E3B22000E3C2231502C02F3CFAF
:1007A60043F0F4CF44F04350392644503A22000E29
:1007B6003B22000E3C223BC03CF03AC03BF039C025
:1007C6003AF0396A30502C02F3CF43F0F4CF44F0BC
:1007D6004350392644503A22000E3B22000E3C225A
:1007E60032502D02F3CF43F0F4CF44F043503F266E
:1007F60044504022000E4122000E422231502E0269
:10080600F3CF43F0F4CF44F043503F264450402208
:10081600000E4122000E422232502E02F3CF43F048
:10082600F4CF44F04350346E4450356E366A376A1E
:1008360036C037F035C036F034C035F0346A34503F
:100846003F2635504022365041223750422239C089
:1008560034F03AC035F03BC036F03CC037F0190EE4
:100866003AEF04F0D8903732363235323432E82E49
:1008760035EF04F034503F263550402236504122A1
:10088600375042223BC03CF03AC03BF039C03AF008
:10089600396A3D503EC034F0356A3426000E3522A2
:1008A600820E3424436EFF0E3520446E70EF04F042
:1008B600D8903F364036413642363CAE65EF04F0BE
:1008C60067EF04F068EF04F03F80D89039363A3687
:1008D6003B363C364306D8A0440641AE75EF04F0DD
:1008E60077EF04F05BEF04F0000E3D6E3CAE7EEF5A
:1008F60004F080EF04F0A4EF04F0FF0E3914346E18
:10090600FF0E3A14356EFF0E3B14366E7F0E3C1406
:10091600376E3450351036103710D8B495EF04F0D2
:1009260097EF04F09BEF04F0010E3D6EA4EF04F088
:100936003FA0A0EF04F0A2EF04F0A4EF04F097EFBD
:1009460004F03D50D8B4AAEF04F0ACEF04F0D0EFB9
:1009560004F0010E3F26000E40224122422242A010
:10096600B7EF04F0B9EF04F0D0EF04F03FC034F075
:1009760040C035F041C036F042C037F03734373228
:1009860036323532343234C03FF035C040F036C0EE
:1009960041F037C042F0434A442A44BEDBEF04F03C
:1009A600445008E14328D8A0DBEF04F0DDEF04F063
:1009B600E7EF04F0000E3F6E000E406E800E416EB3
:1009C6007F0E426E15EF05F044BEF4EF04F044507E
:1009D60006E14304D8B0F2EF04F0F4EF04F000EFC0
:1009E60005F0000E3F6E000E406E000E416E000ECA
:1009F600426E000E386E15EF05F043C03EF0FF0E56
:100A06003F16FF0E40167F0E4116000E42163EA000
:100A16000FEF05F011EF05F012EF05F0418ED890BB
:100A26003E30426E385042123FC02CF040C02DF08E
:100A360041C02EF042C02FF012000BEC0FF0F4EC88
:100A46000CF0C6EC0EF0C7EC0FF0948E949CA50E3D
:100A5600586E35EF05F0070E086ED00E076EA6EC41
:100A66000DF0586EA50E5818D8B43CEF05F03EEFC1
:100A760005F02EEF05F05850BCEC0FF0000E566E48
:100A8600FFEF06F0000E306E000E316EC80E326EAD
:100A9600420E336E000E176EC00E186E7F0E196E64
:100AA600440E1A6E000E026E000E016E77EC0EF00A
:100AB60001C005F002C006F0000E06BEFF0E076E6E
:100AC600086E010E35EC0BF005C013F006C014F0ED
:100AD60007C015F008C016F01AEC07F013C02CF08A
:100AE60014C02DF015C02EF016C02FF00BEC03F03D
:100AF6002CC045F02DC046F02EC047F02FC048F060
:100B06000FEC0CF04550576EC00EADEC0FF0800E9A
:100B1600ADEC0FF00B0E0F6E060E106E4CEC0EF0D9
:100B2600000E046E640E036E57C001F0026A92EC6A
:100B36000CF001C009F002C00AF0000E0C6E0A0E9D
:100B46000B6E4EEC0DF00950300F9EEC0FF0000EC0
:100B5600046E0A0E036E57C001F0026A92EC0CF0A6
:100B660001C009F002C00AF0000E0C6E0A0E0B6EF0
:100B76004EEC0DF00950300F9EEC0FF057C009F007
:100B86000A6A000E0C6E0A0E0B6E4EEC0DF0095042
:100B9600300F9EEC0FF0C00EADEC0FF0010E0F6E95
:100BA600060E106E4CEC0EF0000E046E640E036E14
:100BB60058C001F0026A92EC0CF001C009F002C0C4
:100BC6000AF0000E0C6E0A0E0B6E4EEC0DF009507C
:100BD600300F9EEC0FF0000E046E0A0E036E58C026
:100BE60001F0026A92EC0CF001C009F002C00AF0B2
:100BF600000E0C6E0A0E0B6E4EEC0DF00950300F07
:100C06009EEC0FF058C009F00A6A000E0C6E0A0E30
:100C16000B6E4EEC0DF00950300F9EEC0FF0010EEE
:100C2600566EFFEF06F0000E956EF60E4F6EFF0E37
:100C3600506E5750516E526A4F50512650505222A4
:100C46005850536E546A5150535C5450800A556E36
:100C56005250800A5558D8A033EF06F035EF06F00B
:100C66004EEF06F058504F6E506A5750516E526A0A
:100C76000A0E5126000E52224F50515C5250800AE5
:100C8600536E5050800A5358D8B04CEF06F04EEFD2
:100C960006F06EEF06F0000E026E1A0E016E000EE2
:100CA600046E000E036EE7EC08F0000E026E190EDD
:100CB600016E000E046E000E036EE7EC08F0000EE7
:100CC600026E180E016E000E046E010E036EE7EC46
:100CD60008F0E2EF06F0FB0E4F6EFF0E506E575017
:100CE600516E526A4F505126505052225850536EF0
:100CF600546A5150535C5450800A556E5250800AC3
:100D06005558D8A089EF06F08BEF06F0A4EF06F051
:100D160058504F6E506A5750516E526A050E512602
:100D2600000E52224F50515C5250800A536E505062
:100D3600800A5358D8B0A2EF06F0A4EF06F0C4EF2D
:100D460006F0000E026E1A0E016E000E046E000E04
:100D5600036EE7EC08F0000E026E180E016E000E30
:100D6600046E010E036EE7EC08F0000E026E190E1B
:100D7600016E000E046E010E036EE7EC08F0E2EF62
:100D860006F0000E026E190E016E000E046E010EC4
:100D9600036EE7EC08F0000E026E1A0E016E000EEE
:100DA600046E000E036EE7EC08F0000E026E180EDD
:100DB600016E000E046E000E036EE7EC08F0020EE4
:100DC600566EFFEF06F0A50E586EF1EF06F0070E11
:100DD600086ED00E076EA6EC0DF0586EA50E5818CC
:100DE600D8B4F8EF06F0FAEF06F0EAEF06F058503E
:100DF600BCEC0FF041EF05F056504F6E506A505064
:100E0600000AD8B409EF07F041EF05F04F50000A89
:100E1600D8B445EF05F0010AD8B416EF06F0030A78
:100E2600D8B4E6EF06F041EF05F000EF00F01650FB
:100E3600800B236E165016242A6E15AE25EF07F08A
:100E460027EF07F028EF07F02A802A50D8B42EEFB4
:100E560007F030EF07F045EF07F02A28D8A436EF61
:100E660007F038EF07F040EF07F0000E136E000EA4
:100E7600146E000E156E000E166E158E000E166E92
:100E86004DEF07F0000E136E000E146E000E156E79
:100E9600000E166E1A50800B231A1A501A242B6E47
:100EA60019AE58EF07F05AEF07F05BEF07F02B800B
:100EB6002B50D8B461EF07F063EF07F078EF07F037
:100EC6002B28D8A469EF07F06BEF07F073EF07F054
:100ED600000E176E000E186E000E196E000E1A6EBA
:100EE600198E000E1A6E80EF07F0000E176E000EB8
:100EF600186E000E196E000E1A6E17501810191083
:100F06001A10D8A489EF07F08BEF07F0A3EF07F0CC
:100F1600000E136E000E146E000E156E000E166E89
:100F2600800E15127F0E16122350161213C013F0E0
:100F360014C014F015C015F016C016F0E6EF08F050
:100F46002A50D8A4A9EF07F0ABEF07F0B5EF07F0EA
:100F5600000E136E000E146E000E156E000E166E49
:100F6600E6EF08F02B502AC01BF01C6A1B5E000E31
:100F76001C5A7F0E1B24246E000E1C20256E13C0E7
:100F86001FF014C020F015C021F016C022F0000E8C
:100F9600136E000E146E000E156E000E166E000E09
:100FA600266E000E276E000E286E000E296E000EAD
:100FB6002B6E16EF08F02B50D8B4E4EF07F0E6EFEF
:100FC60007F0FDEF07F0D8901F362036213622367F
:100FD600D890133614361536163629AEF5EF07F0C7
:100FE600F7EF07F0F8EF07F01380D890263627368C
:100FF6002836293617501F5C18502058195021588A
:101006001A502258D8A00AEF08F00CEF08F015EF96
:1010160008F0298C17501F5E1850205A1950215A73
:101026001A50225A2B2A190E2B641CEF08F01EEFB9
:1010360008F0DEEF07F01F50201021102210D8B460
:1010460027EF08F029EF08F041EF08F0268041EF7E
:1010560008F0D890133614361536163629AE36EF04
:1010660008F038EF08F039EF08F01380D8902636EC
:101076002736283629362406D8A0250615AE46EF8B
:1010860008F048EF08F02CEF08F0000E2B6E29AEA2
:101096004FEF08F051EF08F075EF08F0FF0E261439
:1010A6001B6EFF0E27141C6EFF0E28141D6E7F0E7E
:1010B60029141E6E1B501C101D101E10D8B466EF8E
:1010C60008F068EF08F06CEF08F0010E2B6E75EF74
:1010D60008F013A071EF08F073EF08F075EF08F051
:1010E60068EF08F02B50D8B47BEF08F07DEF08F0DE
:1010F600A1EF08F0010E1326000E14221522162267
:1011060016A088EF08F08AEF08F0A1EF08F013C0E8
:101116001BF014C01CF015C01DF016C01EF01E34C6
:101126001E321D321C321B321BC013F01CC014F0C1
:101136001DC015F01EC016F0244A252A25BEACEFA8
:1011460008F0255008E12428D8A0ACEF08F0AEEF4F
:1011560008F0B9EF08F0000E256E2468000E136E35
:10116600000E146E000E156E000E166E25BEC6EF2E
:1011760008F0255006E12404D8B0C4EF08F0C6EF05
:1011860008F0D4EF08F0000E256E000E246E000E57
:10119600136E000E146E000E156E000E166E000E07
:1011A600236E24C02AF02AA0DBEF08F0DDEF08F05A
:1011B600E0EF08F0158EE1EF08F0159ED8902A3082
:1011C600166E97EF07F0120002BEF5EF08F0025018
:1011D60007E1080E015CD8B0F3EF08F0F5EF08F070
:1011E6001FEF09F003500410D8B4FCEF08F0FEEF2F
:1011F60008F00EEF09F001C005F0010E066E052A93
:1012060007EF09F0D8900636052E05EF09F00650CF
:1012160080120DEF0AF001C005F0010E066E052AD8
:1012260017EF09F0D8900636052E15EF09F006508F
:10123600FF0A80160DEF0AF002BE2DEF09F00250EC
:1012460007E1100E015CD8B02BEF09F02DEF09F085
:101256005BEF09F0F80E0126FF0E02220350041080
:10126600D8B438EF09F03AEF09F04AEF09F001C0B7
:1012760005F0010E066E052A43EF09F0D8900636F2
:10128600052E41EF09F0065081120DEF0AF001C05C
:1012960005F0010E066E052A53EF09F0D8900636C2
:1012A600052E51EF09F00650FF0A81160DEF0AF0E0
:1012B60002BE69EF09F0025007E1180E015CD8B0D2
:1012C60067EF09F069EF09F097EF09F0F00E0126D4
:1012D600FF0E022203500410D8B474EF09F076EF23
:1012E60009F086EF09F001C005F0010E066E052A29
:1012F6007FEF09F0D8900636052E7DEF09F00650EF
:1013060082120DEF0AF001C005F0010E066E052AE5
:101316008FEF09F0D8900636052E8DEF09F00650AE
:10132600FF0A82160DEF0AF002BEA5EF09F0025081
:1013360007E1200E015CD8B0A3EF09F0A5EF09F094
:10134600D3EF09F0E80E0126FF0E02220350041027
:10135600D8B4B0EF09F0B2EF09F0C2EF09F001C05E
:1013660005F0010E066E052ABBEF09F0D890063689
:10137600052EB9EF09F0065083120DEF0AF001C0F1
:1013860005F0010E066E052ACBEF09F0D890063659
:10139600052EC9EF09F00650FF0A83160DEF0AF075
:1013A60002BEE1EF09F0025007E1280E015CD8B059
:1013B600DFEF09F0E1EF09F00DEF0AF0E00E01268C
:1013C600FF0E022203500410D8B4ECEF09F0EEEF42
:1013D60009F0FEEF09F001C005F0010E066E052AC0
:1013E600F7EF09F0D8900636052EF5EF09F006500E
:1013F60084120DEF0AF001C005F0010E066E052AF3
:1014060007EF0AF0D8900636052E05EF0AF00650CB
:10141600FF0A8416120002BE1CEF0AF0025007E112
:10142600080E015CD8B01AEF0AF01CEF0AF046EF7E
:101436000AF003500410D8B423EF0AF025EF0AF09F
:1014460035EF0AF001C005F0010E066E052A2EEFF3
:101456000AF0D8900636052E2CEF0AF006509212A6
:1014660034EF0BF001C005F0010E066E052A3EEFC3
:101476000AF0D8900636052E3CEF0AF00650FF0A11
:10148600921634EF0BF002BE54EF0AF0025007E159
:10149600100E015CD8B052EF0AF054EF0AF082EF5A
:1014A6000AF003500410D8B45BEF0AF05DEF0AF0BF
:1014B6006FEF0AF001C005F0F80E0526010E066E64
:1014C600052A68EF0AF0D8900636052E66EF0AF070
:1014D6000650931234EF0BF001C005F0F80E052606
:1014E600010E066E052A7AEF0AF0D8900636052E0A
:1014F60078EF0AF00650FF0A931634EF0BF002BE9F
:1015060090EF0AF0025007E1180E015CD8B08EEF9A
:101516000AF090EF0AF0BEEF0AF003500410D8B4B8
:1015260097EF0AF099EF0AF0ABEF0AF001C005F069
:10153600F00E0526010E066E052AA4EF0AF0D890D5
:101546000636052EA2EF0AF00650941234EF0BF081
:1015560001C005F0F00E0526010E066E052AB6EF4F
:101566000AF0D8900636052EB4EF0AF00650FF0AA8
:10157600941634EF0BF002BECCEF0AF0025007E1EE
:10158600200E015CD8B0CAEF0AF0CCEF0AF0FAEFF1
:101596000AF003500410D8B4D3EF0AF0D5EF0AF0DE
:1015A600E7EF0AF001C005F0E80E0526010E066E0B
:1015B600052AE0EF0AF0D8900636052EDEEF0AF08F
:1015C6000650951234EF0BF001C005F0E80E052623
:1015D600010E066E052AF2EF0AF0D8900636052EA1
:1015E600F0EF0AF00650FF0A951634EF0BF002BE34
:1015F60008EF0BF0025007E1280E015CD8B006EFA9
:101606000BF008EF0BF034EF0BF003500410D8B4D6
:101616000FEF0BF011EF0BF023EF0BF001C005F00D
:10162600E00E0526010E066E052A1CEF0BF0D8907B
:101636000636052E1AEF0BF00650961234EF0BF015
:1016460001C005F0E00E0526010E066E052A2EEFF6
:101656000BF0D8900636052E2CEF0BF00650FF0A3D
:10166600961612000D6E0D50D8B43CEF0BF03EEFFF
:101676000BF060EF0BF008BE45EF0BF043EF0BF0FD
:1016860060EF0BF005C009F006C00AF007C00BF0CA
:1016960008C00CF0091E0A1E0B1E0C1E092A000E9D
:1016A6000A220B220C2209C00FF00AC010F00BC050
:1016B60011F00CC012F068EF0BF005C00FF006C079
:1016C60010F007C011F008C012F005500610071000
:1016D6000810D8A471EF0BF073EF0BF07DEF0BF051
:1016E600000E056E000E066E000E076E000E086EEA
:1016F6000EEF0CF0960E0E6E87EF0BF00E2AD890BA
:101706001232113210320F32000E0F14096E000E13
:1017160010140A6E000E11140B6EFE0E12140C6ECF
:1017260009500A100B100C10D8A49CEF0BF09EEF7A
:101736000BF081EF0BF0ACEF0BF00E2A010E0F262B
:10174600000E102211221222D890123211321032BB
:101756000F32000E0F14096E000E10140A6E000EE2
:1017660011140B6EFF0E12140C6E09500A100B109A
:101776000C10D8A4C1EF0BF0C3EF0BF0A0EF0BF0E9
:10178600CBEF0BF00E06D8900F3610361136123608
:1017960011BED0EF0BF0D2EF0BF0DAEF0BF0020E2A
:1017A6000E60D8EF0BF0DAEF0BF0C5EF0BF00EB0D2
:1017B600DFEF0BF0E1EF0BF0E2EF0BF0119ED890AC
:1017C6000E320EC009F00A6A0B6A0C6A09C00CF0E8
:1017D6000B6A0A6A096A09500F120A5010120B5056
:1017E60011120C5012120D50D8B4FCEF0BF0FEEF94
:1017F6000BF006EF0CF008BE05EF0CF003EF0CF053
:1018060006EF0CF0128E0FC005F010C006F011C0E6
:1018160007F012C008F01200473448344E6E4E509E
:10182600D8A418EF0CF01AEF0CF024EF0CF0000E11
:10183600456E000E466E000E476E000E486E91EF26
:101846000CF045C049F046C04AF047C04BF048C0CE
:101856004CF0200E34EF0CF0D8904C324B324A321A
:101866004932E82E2FEF0CF049504D6E478EFF0E91
:101876004516FF0E4616FF0E4716000E4816960E24
:101886004E5E4EBE4BEF0CF049EF0CF061EF0CF0E4
:101896004E50800A970FD8B053EF0CF055EF0CF06E
:1018A60057EF0CF01AEF0CF0D89048324732463218
:1018B60045324E3E57EF0CF079EF0CF01F0E4E649A
:1018C60067EF0CF069EF0CF071EF0CF01AEF0CF00B
:1018D600D89045364636473648364E064E50D8A43A
:1018E60077EF0CF079EF0CF06BEF0CF04D50D8B4AD
:1018F6007FEF0CF081EF0CF089EF0CF0481E471ECD
:10190600461E456C000E46224722482245C045F039
:1019160046C046F047C047F048C048F01200000EE7
:10192600066E04BE9BEF0CF099EF0CF0A1EF0CF0E5
:10193600036C041ED8B0042A010E066E02BEA8EF80
:101946000CF0A6EF0CF0AEEF0CF0016C021ED8B056
:10195600022A010E061A000E086E000E076E0350CC
:101966000410D8B4B9EF0CF0BBEF0CF0E3EF0CF0B9
:10197600010E056EC3EF0CF0D89003360436052A27
:1019860004AEC8EF0CF0CAEF0CF0BFEF0CF0D89025
:10199600073608360350015C04500258D8A0D6EF2B
:1019A6000CF0D8EF0CF0DDEF0CF00350015E0450A4
:1019B600025A0780D89004320332052ECAEF0CF083
:1019C6000650D8B4E9EF0CF0EBEF0CF0EFEF0CF0AB
:1019D600076C081ED8B0082A07C001F008C002F03C
:1019E6001200000E026E1C0E016E000E046E000E3A
:1019F600036E0EEC0AF0000E026E1D0E016E000E56
:101A0600046E000E036E0EEC0AF02AEC0FF0000EC8
:101A1600026E0F0E016E49EC0FF0000E0B6E000EFB
:101A26000A6E030E8BEC0FF0000E026E050E016EB1
:101A360049EC0FF0000E0B6E000E0A6E030E8BECD7
:101A46000FF0000E026EA00E016ED7EC0FF0000E26
:101A56000B6E000E0A6E030E8BEC0FF0000E026E7C
:101A6600A00E016ED7EC0FF0000E0B6E000E0A6E84
:101A7600020E8BEC0FF0000E026E0A0E016E49ECA0
:101A86000FF0280EADEC0FF00C0EADEC0FF0010EC2
:101A9600ADEC0FF01200000E0E6E0ABE57EF0DF001
:101AA60055EF0DF05DEF0DF0096C0A1ED8B00A2A4D
:101AB600010E0E6E0CBE64EF0DF062EF0DF068EFD6
:101AC6000DF00B6C0C1ED8B00C2A0B500C10D8B4B1
:101AD6006FEF0DF071EF0DF095EF0DF0010E0D6E3D
:101AE60079EF0DF0D8900B360C360D2A0CAE7EEF42
:101AF6000DF080EF0DF075EF0DF00B50095C0C50FA
:101B06000A58D8A089EF0DF08BEF0DF08FEF0DF08E
:101B16000B50095E0C500A5AD8900C320B320D2E1F
:101B260080EF0DF00E50D8B49BEF0DF09DEF0DF049
:101B3600A1EF0DF0096C0A1ED8B00A2A09C009F0F7
:101B46000AC00AF01200000E0A6E000E096EABB44F
:101B5600AFEF0DF0B1EF0DF0B8EF0DF0ABA2B6EFB1
:101B66000DF0B8EF0DF0C6EF0DF0AB98AB88C6EFF1
:101B76000DF0000E026E140E016EEDEC0DF0140E5B
:101B86000926000E0A220750095C08500A58D8A0F8
:101B9600CFEF0DF0D1EF0DF0DAEF0DF00750081092
:101BA600D8A4D8EF0DF0DAEF0DF0E1EF0DF09EAA14
:101BB600DFEF0DF0E1EF0DF0BCEF0DF09EAAE6EFC2
:101BC6000DF0E8EF0DF0EBEF0DF0AE50ECEF0DF091
:101BD600A50E1200000E046E000E036E13EF0EF03B
:101BE600000E056E280E0564FBEF0DF0FDEF0DF0FF
:101BF600FFEF0DF011EF0EF0000E066E020E0664FA
:101C060007EF0EF009EF0EF00BEF0EF00EEF0EF0F1
:101C1600062A01EF0EF0052AF5EF0DF0034A042A15
:101C26000150035C02500458D8A01CEF0EF01EEFC2
:101C36000EF0F3EF0DF012000D6E0DC00CF00C3A25
:101C46000F0E0C160C50076E086A9FEC0EF0000E75
:101C5600026E1D0E016E0AC003F00BC004F0E7EC25
:101C660008F0EAEC0EF00DC00CF00F0E0C160C503E
:101C7600076E086A9FEC0EF0000E026E1D0E016ED6
:101C86000AC003F00BC004F0E7EC08F0EAEC0EF033
:101C96001200000E146E000E136E62EF0EF013505B
:101CA6000F24116E14501020126E11C0F6FF12C0D0
:101CB600F7FF0800F5509EEC0FF0134A142A135054
:101CC6000F24116E14501020126E11C0F6FF12C0B0
:101CD600F7FF0800F5500009D8A474EF0EF076EF70
:101CE6000EF052EF0EF01200C30EC216025007E1BC
:101CF600030E015CD8B082EF0EF084EF0EF088EF91
:101D06000EF00144E846FC0BC212C282C2B28EEF4C
:101D16000EF090EF0EF089EF0EF0C4CF03F0046AD8
:101D26000350046E036AC3500326000E042203C048
:101D360001F004C002F01200000E026E080E016EE1
:101D4600000E046E000E036EE7EC08F0000E096E3E
:101D5600000E026E1E0E016E800E0714036E046ADC
:101D6600E7EC08F076EC0FF0D89007360836092A2B
:101D7600070E0964C1EF0EF0C3EF0EF0ABEF0EF0E5
:101D860061EC0FF01200000E026E000E016E000EE6
:101D9600046E010E036E0EEC0AF0000E026E010ECA
:101DA600016E000E046E010E036E0EEC0AF0000EBC
:101DB600026E020E016E000E046E010E036E0EEC34
:101DC6000AF0C2800C0EC16EAA0EC06E1200000E82
:101DD600026E1C0E016E000E046E010E036EE7EC21
:101DE60008F0000E026E050E016ED7EC0FF0000E25
:101DF600026E1C0E016E000E046E000E036EE7EC02
:101E060008F0000E026E050E016ED7EC0FF0120000
:101E1600000E026E180E016E000E046E000E036EAA
:101E26000EEC0AF0000E026E190E016E000E046E24
:101E3600000E036E0EEC0AF0000E026E1A0E016E14
:101E4600000E046E000E036E0EEC0AF01200000E79
:101E5600026E1F0E016E000E046E000E036E0EEC77
:101E66000AF0000E026E080E016E000E046E000EE1
:101E7600036E0EEC0AF0000E026E1E0E016E000ED0
:101E8600046E000E036E0EEC0AF01200000E056ED4
:101E9600000E046E51EF0FF0044A052A0150045C4F
:101EA6000550800A036E0250800A0358D8A05EEFE0
:101EB6000FF060EF0FF04FEF0FF01200000E026E02
:101EC6001F0E016E000E046E010E036EE7EC08F0A5
:101ED600000E026E1F0E016E000E046E000E036EE3
:101EE600E7EC08F01200000E026E080E016E000EFE
:101EF600046E010E036EE7EC08F0000E026E080E8B
:101F0600016E000E046E000E036EE7EC08F0120080
:101F16000C6E0CC007F0086A9FEC0EF0000E026E05
:101F26001D0E016E0AC003F00BC004F0E7EC08F0CA
:101F3600EAEC0EF012000E6E000E0B6E010E0A6E2B
:101F46000E501FEC0EF0000E026E500E016ED7EC16
:101F56000FF012000E6E000E0B6E000E0A6E0E5083
:101F66001FEC0EF0000E026E020E016E49EC0FF031
:101F76001200016E01C0ADFFACA2C4EF0FF0C6EFB8
:101F86000FF0BFEF0FF01200670EAF6EAC9CAC8A7D
:101F9600AC98AC84AB8EAB9CAB881200596A000E31
:0A1FA600F86E000120EF05F01200B4
:020000040020DA
:08000000FFFFFFFFFFFFFFFF00
:020000040030CA
:0E000000FF027100FF8380FF0FC00FE00F4072
:00000001FF
